{
  "_format": "hh-sol-artifact-1",
  "contractName": "UpgradedFiatTokenNewFieldsTest",
  "sourceName": "contracts/test/UpgradedFiatTokenNewFieldsTest.sol",
  "abi": [
    {
      "anonymous": false,
      "inputs": [
        {
          "indexed": true,
          "internalType": "address",
          "name": "owner",
          "type": "address"
        },
        {
          "indexed": true,
          "internalType": "address",
          "name": "spender",
          "type": "address"
        },
        {
          "indexed": false,
          "internalType": "uint256",
          "name": "value",
          "type": "uint256"
        }
      ],
      "name": "Approval",
      "type": "event"
    },
    {
      "anonymous": false,
      "inputs": [
        {
          "indexed": true,
          "internalType": "address",
          "name": "_account",
          "type": "address"
        }
      ],
      "name": "Blacklisted",
      "type": "event"
    },
    {
      "anonymous": false,
      "inputs": [
        {
          "indexed": true,
          "internalType": "address",
          "name": "newBlacklister",
          "type": "address"
        }
      ],
      "name": "BlacklisterChanged",
      "type": "event"
    },
    {
      "anonymous": false,
      "inputs": [
        {
          "indexed": true,
          "internalType": "address",
          "name": "burner",
          "type": "address"
        },
        {
          "indexed": false,
          "internalType": "uint256",
          "name": "amount",
          "type": "uint256"
        }
      ],
      "name": "Burn",
      "type": "event"
    },
    {
      "anonymous": false,
      "inputs": [
        {
          "indexed": true,
          "internalType": "address",
          "name": "newMasterMinter",
          "type": "address"
        }
      ],
      "name": "MasterMinterChanged",
      "type": "event"
    },
    {
      "anonymous": false,
      "inputs": [
        {
          "indexed": true,
          "internalType": "address",
          "name": "minter",
          "type": "address"
        },
        {
          "indexed": true,
          "internalType": "address",
          "name": "to",
          "type": "address"
        },
        {
          "indexed": false,
          "internalType": "uint256",
          "name": "amount",
          "type": "uint256"
        }
      ],
      "name": "Mint",
      "type": "event"
    },
    {
      "anonymous": false,
      "inputs": [
        {
          "indexed": true,
          "internalType": "address",
          "name": "minter",
          "type": "address"
        },
        {
          "indexed": false,
          "internalType": "uint256",
          "name": "minterAllowedAmount",
          "type": "uint256"
        }
      ],
      "name": "MinterConfigured",
      "type": "event"
    },
    {
      "anonymous": false,
      "inputs": [
        {
          "indexed": true,
          "internalType": "address",
          "name": "oldMinter",
          "type": "address"
        }
      ],
      "name": "MinterRemoved",
      "type": "event"
    },
    {
      "anonymous": false,
      "inputs": [
        {
          "indexed": false,
          "internalType": "address",
          "name": "previousOwner",
          "type": "address"
        },
        {
          "indexed": false,
          "internalType": "address",
          "name": "newOwner",
          "type": "address"
        }
      ],
      "name": "OwnershipTransferred",
      "type": "event"
    },
    {
      "anonymous": false,
      "inputs": [],
      "name": "Pause",
      "type": "event"
    },
    {
      "anonymous": false,
      "inputs": [
        {
          "indexed": true,
          "internalType": "address",
          "name": "newAddress",
          "type": "address"
        }
      ],
      "name": "PauserChanged",
      "type": "event"
    },
    {
      "anonymous": false,
      "inputs": [
        {
          "indexed": true,
          "internalType": "address",
          "name": "from",
          "type": "address"
        },
        {
          "indexed": true,
          "internalType": "address",
          "name": "to",
          "type": "address"
        },
        {
          "indexed": false,
          "internalType": "uint256",
          "name": "value",
          "type": "uint256"
        }
      ],
      "name": "Transfer",
      "type": "event"
    },
    {
      "anonymous": false,
      "inputs": [
        {
          "indexed": true,
          "internalType": "address",
          "name": "_account",
          "type": "address"
        }
      ],
      "name": "UnBlacklisted",
      "type": "event"
    },
    {
      "anonymous": false,
      "inputs": [],
      "name": "Unpause",
      "type": "event"
    },
    {
      "inputs": [
        {
          "internalType": "address",
          "name": "owner",
          "type": "address"
        },
        {
          "internalType": "address",
          "name": "spender",
          "type": "address"
        }
      ],
      "name": "allowance",
      "outputs": [
        {
          "internalType": "uint256",
          "name": "",
          "type": "uint256"
        }
      ],
      "stateMutability": "view",
      "type": "function"
    },
    {
      "inputs": [
        {
          "internalType": "address",
          "name": "spender",
          "type": "address"
        },
        {
          "internalType": "uint256",
          "name": "value",
          "type": "uint256"
        }
      ],
      "name": "approve",
      "outputs": [
        {
          "internalType": "bool",
          "name": "",
          "type": "bool"
        }
      ],
      "stateMutability": "nonpayable",
      "type": "function"
    },
    {
      "inputs": [
        {
          "internalType": "address",
          "name": "account",
          "type": "address"
        }
      ],
      "name": "balanceOf",
      "outputs": [
        {
          "internalType": "uint256",
          "name": "",
          "type": "uint256"
        }
      ],
      "stateMutability": "view",
      "type": "function"
    },
    {
      "inputs": [
        {
          "internalType": "address",
          "name": "_account",
          "type": "address"
        }
      ],
      "name": "blacklist",
      "outputs": [],
      "stateMutability": "nonpayable",
      "type": "function"
    },
    {
      "inputs": [],
      "name": "blacklister",
      "outputs": [
        {
          "internalType": "address",
          "name": "",
          "type": "address"
        }
      ],
      "stateMutability": "view",
      "type": "function"
    },
    {
      "inputs": [
        {
          "internalType": "uint256",
          "name": "_amount",
          "type": "uint256"
        }
      ],
      "name": "burn",
      "outputs": [],
      "stateMutability": "nonpayable",
      "type": "function"
    },
    {
      "inputs": [
        {
          "internalType": "address",
          "name": "minter",
          "type": "address"
        },
        {
          "internalType": "uint256",
          "name": "minterAllowedAmount",
          "type": "uint256"
        }
      ],
      "name": "configureMinter",
      "outputs": [
        {
          "internalType": "bool",
          "name": "",
          "type": "bool"
        }
      ],
      "stateMutability": "nonpayable",
      "type": "function"
    },
    {
      "inputs": [],
      "name": "currency",
      "outputs": [
        {
          "internalType": "string",
          "name": "",
          "type": "string"
        }
      ],
      "stateMutability": "view",
      "type": "function"
    },
    {
      "inputs": [],
      "name": "decimals",
      "outputs": [
        {
          "internalType": "uint8",
          "name": "",
          "type": "uint8"
        }
      ],
      "stateMutability": "view",
      "type": "function"
    },
    {
      "inputs": [
        {
          "internalType": "bool",
          "name": "_newBool",
          "type": "bool"
        },
        {
          "internalType": "address",
          "name": "_newAddress",
          "type": "address"
        },
        {
          "internalType": "uint256",
          "name": "_newUint",
          "type": "uint256"
        }
      ],
      "name": "initV2",
      "outputs": [],
      "stateMutability": "nonpayable",
      "type": "function"
    },
    {
      "inputs": [
        {
          "internalType": "string",
          "name": "tokenName",
          "type": "string"
        },
        {
          "internalType": "string",
          "name": "tokenSymbol",
          "type": "string"
        },
        {
          "internalType": "string",
          "name": "tokenCurrency",
          "type": "string"
        },
        {
          "internalType": "uint8",
          "name": "tokenDecimals",
          "type": "uint8"
        },
        {
          "internalType": "address",
          "name": "newMasterMinter",
          "type": "address"
        },
        {
          "internalType": "address",
          "name": "newPauser",
          "type": "address"
        },
        {
          "internalType": "address",
          "name": "newBlacklister",
          "type": "address"
        },
        {
          "internalType": "address",
          "name": "newOwner",
          "type": "address"
        }
      ],
      "name": "initialize",
      "outputs": [],
      "stateMutability": "nonpayable",
      "type": "function"
    },
    {
      "inputs": [
        {
          "internalType": "string",
          "name": "tokenName",
          "type": "string"
        },
        {
          "internalType": "string",
          "name": "tokenSymbol",
          "type": "string"
        },
        {
          "internalType": "string",
          "name": "tokenCurrency",
          "type": "string"
        },
        {
          "internalType": "uint8",
          "name": "tokenDecimals",
          "type": "uint8"
        },
        {
          "internalType": "address",
          "name": "newMasterMinter",
          "type": "address"
        },
        {
          "internalType": "address",
          "name": "newPauser",
          "type": "address"
        },
        {
          "internalType": "address",
          "name": "newBlacklister",
          "type": "address"
        },
        {
          "internalType": "address",
          "name": "newOwner",
          "type": "address"
        },
        {
          "internalType": "bool",
          "name": "_newBool",
          "type": "bool"
        },
        {
          "internalType": "address",
          "name": "_newAddress",
          "type": "address"
        },
        {
          "internalType": "uint256",
          "name": "_newUint",
          "type": "uint256"
        }
      ],
      "name": "initialize",
      "outputs": [],
      "stateMutability": "nonpayable",
      "type": "function"
    },
    {
      "inputs": [
        {
          "internalType": "address",
          "name": "_account",
          "type": "address"
        }
      ],
      "name": "isBlacklisted",
      "outputs": [
        {
          "internalType": "bool",
          "name": "",
          "type": "bool"
        }
      ],
      "stateMutability": "view",
      "type": "function"
    },
    {
      "inputs": [
        {
          "internalType": "address",
          "name": "account",
          "type": "address"
        }
      ],
      "name": "isMinter",
      "outputs": [
        {
          "internalType": "bool",
          "name": "",
          "type": "bool"
        }
      ],
      "stateMutability": "view",
      "type": "function"
    },
    {
      "inputs": [],
      "name": "masterMinter",
      "outputs": [
        {
          "internalType": "address",
          "name": "",
          "type": "address"
        }
      ],
      "stateMutability": "view",
      "type": "function"
    },
    {
      "inputs": [
        {
          "internalType": "address",
          "name": "_to",
          "type": "address"
        },
        {
          "internalType": "uint256",
          "name": "_amount",
          "type": "uint256"
        }
      ],
      "name": "mint",
      "outputs": [
        {
          "internalType": "bool",
          "name": "",
          "type": "bool"
        }
      ],
      "stateMutability": "nonpayable",
      "type": "function"
    },
    {
      "inputs": [
        {
          "internalType": "address",
          "name": "minter",
          "type": "address"
        }
      ],
      "name": "minterAllowance",
      "outputs": [
        {
          "internalType": "uint256",
          "name": "",
          "type": "uint256"
        }
      ],
      "stateMutability": "view",
      "type": "function"
    },
    {
      "inputs": [],
      "name": "name",
      "outputs": [
        {
          "internalType": "string",
          "name": "",
          "type": "string"
        }
      ],
      "stateMutability": "view",
      "type": "function"
    },
    {
      "inputs": [],
      "name": "newAddress",
      "outputs": [
        {
          "internalType": "address",
          "name": "",
          "type": "address"
        }
      ],
      "stateMutability": "view",
      "type": "function"
    },
    {
      "inputs": [],
      "name": "newBool",
      "outputs": [
        {
          "internalType": "bool",
          "name": "",
          "type": "bool"
        }
      ],
      "stateMutability": "view",
      "type": "function"
    },
    {
      "inputs": [],
      "name": "newUint",
      "outputs": [
        {
          "internalType": "uint256",
          "name": "",
          "type": "uint256"
        }
      ],
      "stateMutability": "view",
      "type": "function"
    },
    {
      "inputs": [],
      "name": "owner",
      "outputs": [
        {
          "internalType": "address",
          "name": "",
          "type": "address"
        }
      ],
      "stateMutability": "view",
      "type": "function"
    },
    {
      "inputs": [],
      "name": "pause",
      "outputs": [],
      "stateMutability": "nonpayable",
      "type": "function"
    },
    {
      "inputs": [],
      "name": "paused",
      "outputs": [
        {
          "internalType": "bool",
          "name": "",
          "type": "bool"
        }
      ],
      "stateMutability": "view",
      "type": "function"
    },
    {
      "inputs": [],
      "name": "pauser",
      "outputs": [
        {
          "internalType": "address",
          "name": "",
          "type": "address"
        }
      ],
      "stateMutability": "view",
      "type": "function"
    },
    {
      "inputs": [
        {
          "internalType": "address",
          "name": "minter",
          "type": "address"
        }
      ],
      "name": "removeMinter",
      "outputs": [
        {
          "internalType": "bool",
          "name": "",
          "type": "bool"
        }
      ],
      "stateMutability": "nonpayable",
      "type": "function"
    },
    {
      "inputs": [],
      "name": "symbol",
      "outputs": [
        {
          "internalType": "string",
          "name": "",
          "type": "string"
        }
      ],
      "stateMutability": "view",
      "type": "function"
    },
    {
      "inputs": [],
      "name": "totalSupply",
      "outputs": [
        {
          "internalType": "uint256",
          "name": "",
          "type": "uint256"
        }
      ],
      "stateMutability": "view",
      "type": "function"
    },
    {
      "inputs": [
        {
          "internalType": "address",
          "name": "to",
          "type": "address"
        },
        {
          "internalType": "uint256",
          "name": "value",
          "type": "uint256"
        }
      ],
      "name": "transfer",
      "outputs": [
        {
          "internalType": "bool",
          "name": "",
          "type": "bool"
        }
      ],
      "stateMutability": "nonpayable",
      "type": "function"
    },
    {
      "inputs": [
        {
          "internalType": "address",
          "name": "from",
          "type": "address"
        },
        {
          "internalType": "address",
          "name": "to",
          "type": "address"
        },
        {
          "internalType": "uint256",
          "name": "value",
          "type": "uint256"
        }
      ],
      "name": "transferFrom",
      "outputs": [
        {
          "internalType": "bool",
          "name": "",
          "type": "bool"
        }
      ],
      "stateMutability": "nonpayable",
      "type": "function"
    },
    {
      "inputs": [
        {
          "internalType": "address",
          "name": "newOwner",
          "type": "address"
        }
      ],
      "name": "transferOwnership",
      "outputs": [],
      "stateMutability": "nonpayable",
      "type": "function"
    },
    {
      "inputs": [
        {
          "internalType": "address",
          "name": "_account",
          "type": "address"
        }
      ],
      "name": "unBlacklist",
      "outputs": [],
      "stateMutability": "nonpayable",
      "type": "function"
    },
    {
      "inputs": [],
      "name": "unpause",
      "outputs": [],
      "stateMutability": "nonpayable",
      "type": "function"
    },
    {
      "inputs": [
        {
          "internalType": "address",
          "name": "_newBlacklister",
          "type": "address"
        }
      ],
      "name": "updateBlacklister",
      "outputs": [],
      "stateMutability": "nonpayable",
      "type": "function"
    },
    {
      "inputs": [
        {
          "internalType": "address",
          "name": "_newMasterMinter",
          "type": "address"
        }
      ],
      "name": "updateMasterMinter",
      "outputs": [],
      "stateMutability": "nonpayable",
      "type": "function"
    },
    {
      "inputs": [
        {
          "internalType": "address",
          "name": "_newPauser",
          "type": "address"
        }
      ],
      "name": "updatePauser",
      "outputs": [],
      "stateMutability": "nonpayable",
      "type": "function"
    }
  ],
  "bytecode": "0x60806040526001805460ff60a01b191690556000600b5534801561002257600080fd5b5061002c33610031565b610053565b600080546001600160a01b0319166001600160a01b0392909216919091179055565b6133f480620000636000396000f3fe608060405234801561001057600080fd5b506004361061025c5760003560e01c80638456cb5911610145578063bd102430116100bd578063e5a6b10f1161008c578063f9bf772811610071578063f9bf772814610a88578063f9f92be414610a90578063fe575a8714610ac35761025c565b8063e5a6b10f14610a4d578063f2fde38b14610a555761025c565b8063bd102430146109c1578063ccdb3f45146109c9578063d76c43c6146109d1578063dd62ed3e14610a125761025c565b80639fd0506d11610114578063aa20e1e4116100f9578063aa20e1e414610928578063aa271e1a1461095b578063ad38bf221461098e5761025c565b80639fd0506d146108e7578063a9059cbb146108ef5761025c565b80638456cb591461089c5780638a6db9c3146108a45780638da5cb5b146108d757806395d89b41146108df5761025c565b806335d99f35116101d85780634e44d956116101a75780635c975abb1161018c5780635c975abb146106fd57806370a08231146107055780637ec80672146107385761025c565b80634e44d95614610691578063554bab3c146106ca5761025c565b806335d99f35146106025780633f4ba83a1461063357806340c10f191461063b57806342966c68146106745761025c565b80631a8952661161022f5780633092afd5116102145780633092afd5146103c5578063313ce567146103f85780633357162b146104165761025c565b80631a8952661461034d57806323b872dd146103825761025c565b806306fdde0314610261578063095ea7b3146102de57806310ae56381461032b57806318160ddd14610333575b600080fd5b610269610af6565b6040805160208082528351818301528351919283929083019185019080838360005b838110156102a357818101518382015260200161028b565b50505050905090810190601f1680156102d05780820380516001836020036101000a031916815260200191505b509250505060405180910390f35b610317600480360360408110156102f457600080fd5b5073ffffffffffffffffffffffffffffffffffffffff8135169060200135610ba2565b604080519115158252519081900360200190f35b610317610d05565b61033b610d0e565b60408051918252519081900360200190f35b6103806004803603602081101561036357600080fd5b503573ffffffffffffffffffffffffffffffffffffffff16610d14565b005b6103176004803603606081101561039857600080fd5b5073ffffffffffffffffffffffffffffffffffffffff813581169160208101359091169060400135610dd1565b610317600480360360208110156103db57600080fd5b503573ffffffffffffffffffffffffffffffffffffffff1661108c565b610400611185565b6040805160ff9092168252519081900360200190f35b610380600480360361010081101561042d57600080fd5b81019060208101813564010000000081111561044857600080fd5b82018360208201111561045a57600080fd5b8035906020019184600183028401116401000000008311171561047c57600080fd5b91908080601f01602080910402602001604051908101604052809392919081815260200183838082843760009201919091525092959493602081019350359150506401000000008111156104cf57600080fd5b8201836020820111156104e157600080fd5b8035906020019184600183028401116401000000008311171561050357600080fd5b91908080601f016020809104026020016040519081016040528093929190818152602001838380828437600092019190915250929594936020810193503591505064010000000081111561055657600080fd5b82018360208201111561056857600080fd5b8035906020019184600183028401116401000000008311171561058a57600080fd5b91908080601f0160208091040260200160405190810160405280939291908181526020018383808284376000920191909152509295505050813560ff16925050602081013573ffffffffffffffffffffffffffffffffffffffff9081169160408101358216916060820135811691608001351661118e565b61060a6114d0565b6040805173ffffffffffffffffffffffffffffffffffffffff9092168252519081900360200190f35b6103806114ec565b6103176004803603604081101561065157600080fd5b5073ffffffffffffffffffffffffffffffffffffffff81351690602001356115af565b6103806004803603602081101561068a57600080fd5b5035611980565b610317600480360360408110156106a757600080fd5b5073ffffffffffffffffffffffffffffffffffffffff8135169060200135611c22565b610380600480360360208110156106e057600080fd5b503573ffffffffffffffffffffffffffffffffffffffff16611db5565b610317611f1c565b61033b6004803603602081101561071b57600080fd5b503573ffffffffffffffffffffffffffffffffffffffff16611f3d565b610380600480360361016081101561074f57600080fd5b81019060208101813564010000000081111561076a57600080fd5b82018360208201111561077c57600080fd5b8035906020019184600183028401116401000000008311171561079e57600080fd5b9193909290916020810190356401000000008111156107bc57600080fd5b8201836020820111156107ce57600080fd5b803590602001918460018302840111640100000000831117156107f057600080fd5b91939092909160208101903564010000000081111561080e57600080fd5b82018360208201111561082057600080fd5b8035906020019184600183028401116401000000008311171561084257600080fd5b919350915060ff8135169073ffffffffffffffffffffffffffffffffffffffff602082013581169160408101358216916060820135811691608081013582169160a082013515159160c08101359091169060e00135611f4e565b610380612039565b61033b600480360360208110156108ba57600080fd5b503573ffffffffffffffffffffffffffffffffffffffff16612113565b61060a61213b565b610269612157565b61060a6121d0565b6103176004803603604081101561090557600080fd5b5073ffffffffffffffffffffffffffffffffffffffff81351690602001356121ec565b6103806004803603602081101561093e57600080fd5b503573ffffffffffffffffffffffffffffffffffffffff16612344565b6103176004803603602081101561097157600080fd5b503573ffffffffffffffffffffffffffffffffffffffff166124ab565b610380600480360360208110156109a457600080fd5b503573ffffffffffffffffffffffffffffffffffffffff166124d6565b61060a61263d565b61060a612659565b610380600480360360608110156109e757600080fd5b50803515159073ffffffffffffffffffffffffffffffffffffffff602082013516906040013561267a565b61033b60048036036040811015610a2857600080fd5b5073ffffffffffffffffffffffffffffffffffffffff81358116916020013516612774565b6102696127ac565b61038060048036036020811015610a6b57600080fd5b503573ffffffffffffffffffffffffffffffffffffffff16612825565b61033b612978565b61038060048036036020811015610aa657600080fd5b503573ffffffffffffffffffffffffffffffffffffffff1661297e565b61031760048036036020811015610ad957600080fd5b503573ffffffffffffffffffffffffffffffffffffffff16612a3b565b6004805460408051602060026001851615610100027fffffffffffffffffffffffffffffffffffffffffffffffffffffffffffffffff0190941693909304601f81018490048402820184019092528181529291830182828015610b9a5780601f10610b6f57610100808354040283529160200191610b9a565b820191906000526020600020905b815481529060010190602001808311610b7d57829003601f168201915b505050505081565b60015460009074010000000000000000000000000000000000000000900460ff1615610c2f57604080517f08c379a000000000000000000000000000000000000000000000000000000000815260206004820152601060248201527f5061757361626c653a2070617573656400000000000000000000000000000000604482015290519081900360640190fd5b33610c3981612a42565b15610c8f576040517f08c379a000000000000000000000000000000000000000000000000000000000815260040180806020018281038252602581526020018061339a6025913960400191505060405180910390fd5b83610c9981612a42565b15610cef576040517f08c379a000000000000000000000000000000000000000000000000000000000815260040180806020018281038252602581526020018061339a6025913960400191505060405180910390fd5b610cfa338686612a6d565b506001949350505050565b600e5460ff1681565b600b5490565b60025473ffffffffffffffffffffffffffffffffffffffff163314610d84576040517f08c379a000000000000000000000000000000000000000000000000000000000815260040180806020018281038252602c815260200180613185602c913960400191505060405180910390fd5b610d8d81612bb4565b60405173ffffffffffffffffffffffffffffffffffffffff8216907f117e3210bb9aa7d9baff172026820255c6f6c30ba8999d1c2fd88e2848137c4e90600090a250565b60015460009074010000000000000000000000000000000000000000900460ff1615610e5e57604080517f08c379a000000000000000000000000000000000000000000000000000000000815260206004820152601060248201527f5061757361626c653a2070617573656400000000000000000000000000000000604482015290519081900360640190fd5b33610e6881612a42565b15610ebe576040517f08c379a000000000000000000000000000000000000000000000000000000000815260040180806020018281038252602581526020018061339a6025913960400191505060405180910390fd5b84610ec881612a42565b15610f1e576040517f08c379a000000000000000000000000000000000000000000000000000000000815260040180806020018281038252602581526020018061339a6025913960400191505060405180910390fd5b84610f2881612a42565b15610f7e576040517f08c379a000000000000000000000000000000000000000000000000000000000815260040180806020018281038252602581526020018061339a6025913960400191505060405180910390fd5b73ffffffffffffffffffffffffffffffffffffffff87166000908152600a60209081526040808320338452909152902054851115611007576040517f08c379a00000000000000000000000000000000000000000000000000000000081526004018080602001828103825260288152602001806132276028913960400191505060405180910390fd5b611012878787612bbf565b73ffffffffffffffffffffffffffffffffffffffff87166000908152600a6020908152604080832033845290915290205461104d9086612d8a565b73ffffffffffffffffffffffffffffffffffffffff88166000908152600a60209081526040808320338452909152902055600193505050509392505050565b60085460009073ffffffffffffffffffffffffffffffffffffffff1633146110ff576040517f08c379a000000000000000000000000000000000000000000000000000000000815260040180806020018281038252602981526020018061315c6029913960400191505060405180910390fd5b73ffffffffffffffffffffffffffffffffffffffff82166000818152600c6020908152604080832080547fffffffffffffffffffffffffffffffffffffffffffffffffffffffffffffff00169055600d909152808220829055517fe94479a9f7e1952cc78f2d6baab678adc1b772d936c6583def489e524cb666929190a2506001919050565b60065460ff1681565b60085474010000000000000000000000000000000000000000900460ff1615611202576040517f08c379a000000000000000000000000000000000000000000000000000000000815260040180806020018281038252602a81526020018061327d602a913960400191505060405180910390fd5b73ffffffffffffffffffffffffffffffffffffffff841661126e576040517f08c379a000000000000000000000000000000000000000000000000000000000815260040180806020018281038252602f8152602001806131f8602f913960400191505060405180910390fd5b73ffffffffffffffffffffffffffffffffffffffff83166112da576040517f08c379a00000000000000000000000000000000000000000000000000000000081526004018080602001828103825260298152602001806130e46029913960400191505060405180910390fd5b73ffffffffffffffffffffffffffffffffffffffff8216611346576040517f08c379a000000000000000000000000000000000000000000000000000000000815260040180806020018281038252602e81526020018061324f602e913960400191505060405180910390fd5b73ffffffffffffffffffffffffffffffffffffffff81166113b2576040517f08c379a00000000000000000000000000000000000000000000000000000000081526004018080602001828103825260288152602001806133406028913960400191505060405180910390fd5b87516113c59060049060208b0190612f71565b5086516113d99060059060208a0190612f71565b5085516113ed906007906020890190612f71565b50600680547fffffffffffffffffffffffffffffffffffffffffffffffffffffffffffffff001660ff8716179055600880547fffffffffffffffffffffffff000000000000000000000000000000000000000090811673ffffffffffffffffffffffffffffffffffffffff878116919091179092556001805482168684161790556002805490911691841691909117905561148781612e01565b5050600880547fffffffffffffffffffffff00ffffffffffffffffffffffffffffffffffffffff1674010000000000000000000000000000000000000000179055505050505050565b60085473ffffffffffffffffffffffffffffffffffffffff1681565b60015473ffffffffffffffffffffffffffffffffffffffff16331461155c576040517f08c379a000000000000000000000000000000000000000000000000000000000815260040180806020018281038252602281526020018061331e6022913960400191505060405180910390fd5b600180547fffffffffffffffffffffff00ffffffffffffffffffffffffffffffffffffffff1690556040517f7805862f689e2f13df9f062ff482ad3ad112aca9e0847911ed832e158c525b3390600090a1565b60015460009074010000000000000000000000000000000000000000900460ff161561163c57604080517f08c379a000000000000000000000000000000000000000000000000000000000815260206004820152601060248201527f5061757361626c653a2070617573656400000000000000000000000000000000604482015290519081900360640190fd5b336000908152600c602052604090205460ff166116a4576040517f08c379a00000000000000000000000000000000000000000000000000000000081526004018080602001828103825260218152602001806131d76021913960400191505060405180910390fd5b336116ae81612a42565b15611704576040517f08c379a000000000000000000000000000000000000000000000000000000000815260040180806020018281038252602581526020018061339a6025913960400191505060405180910390fd5b8361170e81612a42565b15611764576040517f08c379a000000000000000000000000000000000000000000000000000000000815260040180806020018281038252602581526020018061339a6025913960400191505060405180910390fd5b73ffffffffffffffffffffffffffffffffffffffff85166117d0576040517f08c379a00000000000000000000000000000000000000000000000000000000081526004018080602001828103825260238152602001806130796023913960400191505060405180910390fd5b60008411611829576040517f08c379a000000000000000000000000000000000000000000000000000000000815260040180806020018281038252602981526020018061310d6029913960400191505060405180910390fd5b336000908152600d602052604090205480851115611892576040517f08c379a000000000000000000000000000000000000000000000000000000000815260040180806020018281038252602e8152602001806132f0602e913960400191505060405180910390fd5b600b5461189f9086612e48565b600b556118be866118b9876118b383612ec3565b90612e48565b612eeb565b6118c88186612d8a565b336000818152600d6020908152604091829020939093558051888152905173ffffffffffffffffffffffffffffffffffffffff8a16937fab8530f87dc9b59234c4623bf917212bb2536d647574c8e7e5da92c2ede0c9f8928290030190a360408051868152905173ffffffffffffffffffffffffffffffffffffffff8816916000917fddf252ad1be2c89b69c2b068fc378daa952ba7f163c4a11628f55a4df523b3ef9181900360200190a350600195945050505050565b60015474010000000000000000000000000000000000000000900460ff1615611a0a57604080517f08c379a000000000000000000000000000000000000000000000000000000000815260206004820152601060248201527f5061757361626c653a2070617573656400000000000000000000000000000000604482015290519081900360640190fd5b336000908152600c602052604090205460ff16611a72576040517f08c379a00000000000000000000000000000000000000000000000000000000081526004018080602001828103825260218152602001806131d76021913960400191505060405180910390fd5b33611a7c81612a42565b15611ad2576040517f08c379a000000000000000000000000000000000000000000000000000000000815260040180806020018281038252602581526020018061339a6025913960400191505060405180910390fd5b6000611add33612ec3565b905060008311611b38576040517f08c379a00000000000000000000000000000000000000000000000000000000081526004018080602001828103825260298152602001806130506029913960400191505060405180910390fd5b82811015611b91576040517f08c379a00000000000000000000000000000000000000000000000000000000081526004018080602001828103825260268152602001806131b16026913960400191505060405180910390fd5b600b54611b9e9084612d8a565b600b55611baf336118b98386612d8a565b60408051848152905133917fcc16f5dbb4873280815c1ee09dbd06736cffcc184412cf7a71a0fdb75d397ca5919081900360200190a260408051848152905160009133917fddf252ad1be2c89b69c2b068fc378daa952ba7f163c4a11628f55a4df523b3ef9181900360200190a3505050565b60015460009074010000000000000000000000000000000000000000900460ff1615611caf57604080517f08c379a000000000000000000000000000000000000000000000000000000000815260206004820152601060248201527f5061757361626c653a2070617573656400000000000000000000000000000000604482015290519081900360640190fd5b60085473ffffffffffffffffffffffffffffffffffffffff163314611d1f576040517f08c379a000000000000000000000000000000000000000000000000000000000815260040180806020018281038252602981526020018061315c6029913960400191505060405180910390fd5b73ffffffffffffffffffffffffffffffffffffffff83166000818152600c6020908152604080832080547fffffffffffffffffffffffffffffffffffffffffffffffffffffffffffffff00166001179055600d825291829020859055815185815291517f46980fca912ef9bcdbd36877427b6b90e860769f604e89c0e67720cece530d209281900390910190a250600192915050565b60005473ffffffffffffffffffffffffffffffffffffffff163314611e3b57604080517f08c379a000000000000000000000000000000000000000000000000000000000815260206004820181905260248201527f4f776e61626c653a2063616c6c6572206973206e6f7420746865206f776e6572604482015290519081900360640190fd5b73ffffffffffffffffffffffffffffffffffffffff8116611ea7576040517f08c379a00000000000000000000000000000000000000000000000000000000081526004018080602001828103825260288152602001806130286028913960400191505060405180910390fd5b600180547fffffffffffffffffffffffff00000000000000000000000000000000000000001673ffffffffffffffffffffffffffffffffffffffff83811691909117918290556040519116907fb80482a293ca2e013eda8683c9bd7fc8347cfdaeea5ede58cba46df502c2a60490600090a250565b60015474010000000000000000000000000000000000000000900460ff1681565b6000611f4882612ec3565b92915050565b61201e8e8e8080601f016020809104026020016040519081016040528093929190818152602001838380828437600081840152601f19601f820116905080830192505050505050508d8d8080601f016020809104026020016040519081016040528093929190818152602001838380828437600081840152601f19601f820116905080830192505050505050508c8c8080601f0160208091040260200160405190810160405280939291908181526020018383808284376000920191909152508e92508d91508c90508b8b61118e565b61202983838361267a565b5050505050505050505050505050565b60015473ffffffffffffffffffffffffffffffffffffffff1633146120a9576040517f08c379a000000000000000000000000000000000000000000000000000000000815260040180806020018281038252602281526020018061331e6022913960400191505060405180910390fd5b600180547fffffffffffffffffffffff00ffffffffffffffffffffffffffffffffffffffff16740100000000000000000000000000000000000000001790556040517f6985a02210a168e66602d3235cb6db0e70f92b3ba4d376a33c0f3d9434bff62590600090a1565b73ffffffffffffffffffffffffffffffffffffffff166000908152600d602052604090205490565b60005473ffffffffffffffffffffffffffffffffffffffff1690565b6005805460408051602060026001851615610100027fffffffffffffffffffffffffffffffffffffffffffffffffffffffffffffffff0190941693909304601f81018490048402820184019092528181529291830182828015610b9a5780601f10610b6f57610100808354040283529160200191610b9a565b60015473ffffffffffffffffffffffffffffffffffffffff1681565b60015460009074010000000000000000000000000000000000000000900460ff161561227957604080517f08c379a000000000000000000000000000000000000000000000000000000000815260206004820152601060248201527f5061757361626c653a2070617573656400000000000000000000000000000000604482015290519081900360640190fd5b3361228381612a42565b156122d9576040517f08c379a000000000000000000000000000000000000000000000000000000000815260040180806020018281038252602581526020018061339a6025913960400191505060405180910390fd5b836122e381612a42565b15612339576040517f08c379a000000000000000000000000000000000000000000000000000000000815260040180806020018281038252602581526020018061339a6025913960400191505060405180910390fd5b610cfa338686612bbf565b60005473ffffffffffffffffffffffffffffffffffffffff1633146123ca57604080517f08c379a000000000000000000000000000000000000000000000000000000000815260206004820181905260248201527f4f776e61626c653a2063616c6c6572206973206e6f7420746865206f776e6572604482015290519081900360640190fd5b73ffffffffffffffffffffffffffffffffffffffff8116612436576040517f08c379a000000000000000000000000000000000000000000000000000000000815260040180806020018281038252602f8152602001806131f8602f913960400191505060405180910390fd5b600880547fffffffffffffffffffffffff00000000000000000000000000000000000000001673ffffffffffffffffffffffffffffffffffffffff83811691909117918290556040519116907fdb66dfa9c6b8f5226fe9aac7e51897ae8ee94ac31dc70bb6c9900b2574b707e690600090a250565b73ffffffffffffffffffffffffffffffffffffffff166000908152600c602052604090205460ff1690565b60005473ffffffffffffffffffffffffffffffffffffffff16331461255c57604080517f08c379a000000000000000000000000000000000000000000000000000000000815260206004820181905260248201527f4f776e61626c653a2063616c6c6572206973206e6f7420746865206f776e6572604482015290519081900360640190fd5b73ffffffffffffffffffffffffffffffffffffffff81166125c8576040517f08c379a00000000000000000000000000000000000000000000000000000000081526004018080602001828103825260328152602001806133686032913960400191505060405180910390fd5b600280547fffffffffffffffffffffffff00000000000000000000000000000000000000001673ffffffffffffffffffffffffffffffffffffffff83811691909117918290556040519116907fc67398012c111ce95ecb7429b933096c977380ee6c421175a71a4a4c6c88c06e90600090a250565b60025473ffffffffffffffffffffffffffffffffffffffff1681565b600e54610100900473ffffffffffffffffffffffffffffffffffffffff1681565b60105460ff16156126ec57604080517f08c379a000000000000000000000000000000000000000000000000000000000815260206004820152601f60248201527f636f6e747261637420697320616c726561647920696e697469616c697a656400604482015290519081900360640190fd5b600e805473ffffffffffffffffffffffffffffffffffffffff909316610100027fffffffffffffffffffffff0000000000000000000000000000000000000000ff9415157fffffffffffffffffffffffffffffffffffffffffffffffffffffffffffffff00948516179490941693909317909255600f91909155601080549091166001179055565b73ffffffffffffffffffffffffffffffffffffffff9182166000908152600a6020908152604080832093909416825291909152205490565b6007805460408051602060026001851615610100027fffffffffffffffffffffffffffffffffffffffffffffffffffffffffffffffff0190941693909304601f81018490048402820184019092528181529291830182828015610b9a5780601f10610b6f57610100808354040283529160200191610b9a565b60005473ffffffffffffffffffffffffffffffffffffffff1633146128ab57604080517f08c379a000000000000000000000000000000000000000000000000000000000815260206004820181905260248201527f4f776e61626c653a2063616c6c6572206973206e6f7420746865206f776e6572604482015290519081900360640190fd5b73ffffffffffffffffffffffffffffffffffffffff8116612917576040517f08c379a000000000000000000000000000000000000000000000000000000000815260040180806020018281038252602681526020018061309c6026913960400191505060405180910390fd5b6000546040805173ffffffffffffffffffffffffffffffffffffffff9283168152918316602083015280517f8be0079c531659141344cd1fd0a4f28419497f9722a3daafe3b4186f6b6457e09281900390910190a161297581612e01565b50565b600f5481565b60025473ffffffffffffffffffffffffffffffffffffffff1633146129ee576040517f08c379a000000000000000000000000000000000000000000000000000000000815260040180806020018281038252602c815260200180613185602c913960400191505060405180910390fd5b6129f781612f14565b60405173ffffffffffffffffffffffffffffffffffffffff8216907fffa4e6181777692565cf28528fc88fd1516ea86b56da075235fa575af6a4b85590600090a250565b6000611f48825b73ffffffffffffffffffffffffffffffffffffffff1660009081526003602052604090205460ff1690565b73ffffffffffffffffffffffffffffffffffffffff8316612ad9576040517f08c379a00000000000000000000000000000000000000000000000000000000081526004018080602001828103825260248152602001806132cc6024913960400191505060405180910390fd5b73ffffffffffffffffffffffffffffffffffffffff8216612b45576040517f08c379a00000000000000000000000000000000000000000000000000000000081526004018080602001828103825260228152602001806130c26022913960400191505060405180910390fd5b73ffffffffffffffffffffffffffffffffffffffff8084166000818152600a6020908152604080832094871680845294825291829020859055815185815291517f8c5be1e5ebec7d5bd14f71427d1e84f3dd0314c0f7b2291e5b200ac8c7c3b9259281900390910190a3505050565b612975816000612f1b565b73ffffffffffffffffffffffffffffffffffffffff8316612c2b576040517f08c379a00000000000000000000000000000000000000000000000000000000081526004018080602001828103825260258152602001806132a76025913960400191505060405180910390fd5b73ffffffffffffffffffffffffffffffffffffffff8216612c97576040517f08c379a00000000000000000000000000000000000000000000000000000000081526004018080602001828103825260238152602001806130056023913960400191505060405180910390fd5b612ca083612ec3565b811115612cf8576040517f08c379a00000000000000000000000000000000000000000000000000000000081526004018080602001828103825260268152602001806131366026913960400191505060405180910390fd5b612d0f836118b983612d0987612ec3565b90612d8a565b612d20826118b9836118b386612ec3565b8173ffffffffffffffffffffffffffffffffffffffff168373ffffffffffffffffffffffffffffffffffffffff167fddf252ad1be2c89b69c2b068fc378daa952ba7f163c4a11628f55a4df523b3ef836040518082815260200191505060405180910390a3505050565b600082821115612dfb57604080517f08c379a000000000000000000000000000000000000000000000000000000000815260206004820152601e60248201527f536166654d6174683a207375627472616374696f6e206f766572666c6f770000604482015290519081900360640190fd5b50900390565b600080547fffffffffffffffffffffffff00000000000000000000000000000000000000001673ffffffffffffffffffffffffffffffffffffffff92909216919091179055565b600082820183811015612ebc57604080517f08c379a000000000000000000000000000000000000000000000000000000000815260206004820152601b60248201527f536166654d6174683a206164646974696f6e206f766572666c6f770000000000604482015290519081900360640190fd5b9392505050565b73ffffffffffffffffffffffffffffffffffffffff1660009081526009602052604090205490565b73ffffffffffffffffffffffffffffffffffffffff909116600090815260096020526040902055565b6129758160015b73ffffffffffffffffffffffffffffffffffffffff91909116600090815260036020526040902080547fffffffffffffffffffffffffffffffffffffffffffffffffffffffffffffff0016911515919091179055565b828054600181600116156101000203166002900490600052602060002090601f016020900481019282601f10612fb257805160ff1916838001178555612fdf565b82800160010185558215612fdf579182015b82811115612fdf578251825591602001919060010190612fc4565b50612feb929150612fef565b5090565b5b80821115612feb5760008155600101612ff056fe45524332303a207472616e7366657220746f20746865207a65726f20616464726573735061757361626c653a206e65772070617573657220697320746865207a65726f206164647265737346696174546f6b656e3a206275726e20616d6f756e74206e6f742067726561746572207468616e203046696174546f6b656e3a206d696e7420746f20746865207a65726f20616464726573734f776e61626c653a206e6577206f776e657220697320746865207a65726f206164647265737345524332303a20617070726f766520746f20746865207a65726f206164647265737346696174546f6b656e3a206e65772070617573657220697320746865207a65726f206164647265737346696174546f6b656e3a206d696e7420616d6f756e74206e6f742067726561746572207468616e203045524332303a207472616e7366657220616d6f756e7420657863656564732062616c616e636546696174546f6b656e3a2063616c6c6572206973206e6f7420746865206d61737465724d696e746572426c61636b6c69737461626c653a2063616c6c6572206973206e6f742074686520626c61636b6c697374657246696174546f6b656e3a206275726e20616d6f756e7420657863656564732062616c616e636546696174546f6b656e3a2063616c6c6572206973206e6f742061206d696e74657246696174546f6b656e3a206e6577206d61737465724d696e74657220697320746865207a65726f206164647265737345524332303a207472616e7366657220616d6f756e74206578636565647320616c6c6f77616e636546696174546f6b656e3a206e657720626c61636b6c697374657220697320746865207a65726f206164647265737346696174546f6b656e3a20636f6e747261637420697320616c726561647920696e697469616c697a656445524332303a207472616e736665722066726f6d20746865207a65726f206164647265737345524332303a20617070726f76652066726f6d20746865207a65726f206164647265737346696174546f6b656e3a206d696e7420616d6f756e742065786365656473206d696e746572416c6c6f77616e63655061757361626c653a2063616c6c6572206973206e6f74207468652070617573657246696174546f6b656e3a206e6577206f776e657220697320746865207a65726f2061646472657373426c61636b6c69737461626c653a206e657720626c61636b6c697374657220697320746865207a65726f2061646472657373426c61636b6c69737461626c653a206163636f756e7420697320626c61636b6c6973746564a2646970667358221220261e09b3cd1a52155dd4740a7d8161bc4963f1fb9b7ea843d0ab2c52652aa13064736f6c634300060c0033",
  "linkReferences": {},
  "deployedLinkReferences": {}
}