{
  "_format": "hh-sol-artifact-1",
  "contractName": "L2UsdcBridgeProxy",
  "sourceName": "contracts/L2/L2UsdcBridgeProxy.sol",
  "abi": [
    {
      "inputs": [
        {
          "internalType": "address",
          "name": "_logic",
          "type": "address"
        },
        {
          "internalType": "address",
          "name": "initialOwner",
          "type": "address"
        },
        {
          "internalType": "bytes",
          "name": "_data",
          "type": "bytes"
        }
      ],
      "stateMutability": "payable",
      "type": "constructor"
    },
    {
      "inputs": [
        {
          "internalType": "address",
          "name": "target",
          "type": "address"
        }
      ],
      "name": "AddressEmptyCode",
      "type": "error"
    },
    {
      "inputs": [
        {
          "internalType": "address",
          "name": "admin",
          "type": "address"
        }
      ],
      "name": "ERC1967InvalidAdmin",
      "type": "error"
    },
    {
      "inputs": [
        {
          "internalType": "address",
          "name": "implementation",
          "type": "address"
        }
      ],
      "name": "ERC1967InvalidImplementation",
      "type": "error"
    },
    {
      "inputs": [],
      "name": "ERC1967NonPayable",
      "type": "error"
    },
    {
      "inputs": [],
      "name": "FailedInnerCall",
      "type": "error"
    },
    {
      "anonymous": false,
      "inputs": [
        {
          "indexed": false,
          "internalType": "address",
          "name": "previousAdmin",
          "type": "address"
        },
        {
          "indexed": false,
          "internalType": "address",
          "name": "newAdmin",
          "type": "address"
        }
      ],
      "name": "AdminChanged",
      "type": "event"
    },
    {
      "anonymous": false,
      "inputs": [
        {
          "indexed": true,
          "internalType": "address",
          "name": "implementation",
          "type": "address"
        }
      ],
      "name": "Upgraded",
      "type": "event"
    },
    {
      "stateMutability": "payable",
      "type": "fallback"
    },
    {
      "inputs": [],
      "name": "implementation",
      "outputs": [
        {
          "internalType": "address",
          "name": "",
          "type": "address"
        }
      ],
      "stateMutability": "view",
      "type": "function"
    },
    {
      "inputs": [],
      "name": "l1Usdc",
      "outputs": [
        {
          "internalType": "address",
          "name": "",
          "type": "address"
        }
      ],
      "stateMutability": "view",
      "type": "function"
    },
    {
      "inputs": [],
      "name": "l2Usdc",
      "outputs": [
        {
          "internalType": "address",
          "name": "",
          "type": "address"
        }
      ],
      "stateMutability": "view",
      "type": "function"
    },
    {
      "inputs": [],
      "name": "l2UsdcMasterMinter",
      "outputs": [
        {
          "internalType": "address",
          "name": "",
          "type": "address"
        }
      ],
      "stateMutability": "view",
      "type": "function"
    },
    {
      "inputs": [],
      "name": "messenger",
      "outputs": [
        {
          "internalType": "address",
          "name": "",
          "type": "address"
        }
      ],
      "stateMutability": "view",
      "type": "function"
    },
    {
      "inputs": [],
      "name": "otherBridge",
      "outputs": [
        {
          "internalType": "address",
          "name": "",
          "type": "address"
        }
      ],
      "stateMutability": "view",
      "type": "function"
    },
    {
      "inputs": [],
      "name": "owner",
      "outputs": [
        {
          "internalType": "address",
          "name": "",
          "type": "address"
        }
      ],
      "stateMutability": "view",
      "type": "function"
    },
    {
      "inputs": [
        {
          "internalType": "address",
          "name": "newAdmin",
          "type": "address"
        }
      ],
      "name": "proxyChangeOwner",
      "outputs": [],
      "stateMutability": "nonpayable",
      "type": "function"
    },
    {
      "inputs": [
        {
          "internalType": "address",
          "name": "_messenger",
          "type": "address"
        },
        {
          "internalType": "address",
          "name": "_otherBridge",
          "type": "address"
        },
        {
          "internalType": "address",
          "name": "_l1Usdc",
          "type": "address"
        },
        {
          "internalType": "address",
          "name": "_l2Usdc",
          "type": "address"
        },
        {
          "internalType": "address",
          "name": "_l2UsdcMasterMinter",
          "type": "address"
        }
      ],
      "name": "setAddress",
      "outputs": [],
      "stateMutability": "nonpayable",
      "type": "function"
    },
    {
      "inputs": [
        {
          "internalType": "address",
          "name": "newImplementation",
          "type": "address"
        }
      ],
      "name": "upgradeTo",
      "outputs": [],
      "stateMutability": "nonpayable",
      "type": "function"
    },
    {
      "inputs": [
        {
          "internalType": "address",
          "name": "newImplementation",
          "type": "address"
        },
        {
          "internalType": "bytes",
          "name": "data",
          "type": "bytes"
        }
      ],
      "name": "upgradeToAndCall",
      "outputs": [],
      "stateMutability": "nonpayable",
      "type": "function"
    },
    {
      "stateMutability": "payable",
      "type": "receive"
    }
  ],
  "bytecode": "0x608060405260405162000f7938038062000f7983398101604081905262000026916200036e565b82816200003482826200004b565b5062000042905082620000b1565b5050506200046c565b620000568262000123565b6040516001600160a01b038316907fbc7cd75a20ee27fd9adebab32041f755214dbc6bffa90cc0225b39da2e5c2d3b90600090a2805115620000a3576200009e8282620001a3565b505050565b620000ad62000220565b5050565b7f7e644d79422f17c01e4894b5f4f588d331ebfa28653d42ae832dc59e38c9798f620000f360008051602062000f59833981519152546001600160a01b031690565b604080516001600160a01b03928316815291841660208301520160405180910390a1620001208162000242565b50565b806001600160a01b03163b6000036200015f57604051634c9c8ce360e01b81526001600160a01b03821660048201526024015b60405180910390fd5b807f360894a13ba1a3210667c828492db98dca3e2076cc3735a920a3ca505d382bbc5b80546001600160a01b0319166001600160a01b039290921691909117905550565b6060600080846001600160a01b031684604051620001c291906200044e565b600060405180830381855af49150503d8060008114620001ff576040519150601f19603f3d011682016040523d82523d6000602084013e62000204565b606091505b5090925090506200021785838362000285565b95945050505050565b3415620002405760405163b398979f60e01b815260040160405180910390fd5b565b6001600160a01b0381166200026e57604051633173bdd160e11b81526000600482015260240162000156565b8060008051602062000f5983398151915262000182565b6060826200029e576200029882620002eb565b620002e4565b8151158015620002b657506001600160a01b0384163b155b15620002e157604051639996b31560e01b81526001600160a01b038516600482015260240162000156565b50805b9392505050565b805115620002fc5780518082602001fd5b604051630a12f52160e11b815260040160405180910390fd5b80516001600160a01b03811681146200032d57600080fd5b919050565b634e487b7160e01b600052604160045260246000fd5b60005b83811015620003655781810151838201526020016200034b565b50506000910152565b6000806000606084860312156200038457600080fd5b6200038f8462000315565b92506200039f6020850162000315565b60408501519092506001600160401b0380821115620003bd57600080fd5b818601915086601f830112620003d257600080fd5b815181811115620003e757620003e762000332565b604051601f8201601f19908116603f0116810190838211818310171562000412576200041262000332565b816040528281528960208487010111156200042c57600080fd5b6200043f83602083016020880162000348565b80955050505050509250925092565b600082516200046281846020870162000348565b9190910192915050565b610add806200047c6000396000f3fe6080604052600436106100c05760003560e01c806356c3b58711610074578063a1b4bc041161004e578063a1b4bc0414610222578063c89701a214610242578063dfd3dcb31461026257610112565b806356c3b587146101d85780635c60da1b146101f85780638da5cb5b1461020d57610112565b80633659cfe6116100a55780633659cfe6146101785780633cb747bf146101985780634f1ef286146101b857610112565b806305db940f1461011c57806312c594881461015857610112565b366101125760405162461bcd60e51b815260206004820152601260248201527f63616e6e6f74207265636569766520544f4e000000000000000000000000000060448201526064015b60405180910390fd5b61011a610282565b005b34801561012857600080fd5b5060045461013c906001600160a01b031681565b6040516001600160a01b03909116815260200160405180910390f35b34801561016457600080fd5b5061011a610173366004610949565b610294565b34801561018457600080fd5b5061011a6101933660046109ae565b6104b8565b3480156101a457600080fd5b5060005461013c906001600160a01b031681565b3480156101c457600080fd5b5061011a6101d33660046109df565b610528565b3480156101e457600080fd5b5060025461013c906001600160a01b031681565b34801561020457600080fd5b5061013c61058a565b34801561021957600080fd5b5061013c610599565b34801561022e57600080fd5b5060035461013c906001600160a01b031681565b34801561024e57600080fd5b5060015461013c906001600160a01b031681565b34801561026e57600080fd5b5061011a61027d3660046109ae565b6105a3565b61029261028d610600565b61060a565b565b61029c610599565b6001600160a01b0316336001600160a01b0316146102e85760405162461bcd60e51b81526020600482015260096024820152683737ba1037bbb732b960b91b6044820152606401610109565b846001600160a01b03811661032e5760405162461bcd60e51b815260206004820152600c60248201526b7a65726f206164647265737360a01b6044820152606401610109565b846001600160a01b0381166103745760405162461bcd60e51b815260206004820152600c60248201526b7a65726f206164647265737360a01b6044820152606401610109565b846001600160a01b0381166103ba5760405162461bcd60e51b815260206004820152600c60248201526b7a65726f206164647265737360a01b6044820152606401610109565b846001600160a01b0381166104005760405162461bcd60e51b815260206004820152600c60248201526b7a65726f206164647265737360a01b6044820152606401610109565b846001600160a01b0381166104465760405162461bcd60e51b815260206004820152600c60248201526b7a65726f206164647265737360a01b6044820152606401610109565b50506000805473ffffffffffffffffffffffffffffffffffffffff199081166001600160a01b039a8b1617909155600180548216988a16989098179097555050600280548616948716949094179093556003805485169286169290921790915560048054909316931692909217905550565b6104c0610599565b6001600160a01b0316336001600160a01b03161461050c5760405162461bcd60e51b81526020600482015260096024820152683737ba1037bbb732b960b91b6044820152606401610109565b610525816040518060200160405280600081525061062e565b50565b610530610599565b6001600160a01b0316336001600160a01b03161461057c5760405162461bcd60e51b81526020600482015260096024820152683737ba1037bbb732b960b91b6044820152606401610109565b610586828261062e565b5050565b6000610594610600565b905090565b6000610594610689565b6105ab610599565b6001600160a01b0316336001600160a01b0316146105f75760405162461bcd60e51b81526020600482015260096024820152683737ba1037bbb732b960b91b6044820152606401610109565b610525816106bc565b6000610594610710565b3660008037600080366000845af43d6000803e808015610629573d6000f35b3d6000fd5b61063782610738565b6040516001600160a01b038316907fbc7cd75a20ee27fd9adebab32041f755214dbc6bffa90cc0225b39da2e5c2d3b90600090a28051156106815761067c82826107bf565b505050565b610586610835565b60007fb53127684a568b3173ae13b9f8a6016e243e63b6e8ee1178d6a717850b5d61035b546001600160a01b0316919050565b7f7e644d79422f17c01e4894b5f4f588d331ebfa28653d42ae832dc59e38c9798f6106e5610689565b604080516001600160a01b03928316815291841660208301520160405180910390a161052581610854565b60007f360894a13ba1a3210667c828492db98dca3e2076cc3735a920a3ca505d382bbc6106ad565b806001600160a01b03163b60000361076e57604051634c9c8ce360e01b81526001600160a01b0382166004820152602401610109565b807f360894a13ba1a3210667c828492db98dca3e2076cc3735a920a3ca505d382bbc5b805473ffffffffffffffffffffffffffffffffffffffff19166001600160a01b039290921691909117905550565b6060600080846001600160a01b0316846040516107dc9190610aa1565b600060405180830381855af49150503d8060008114610817576040519150601f19603f3d011682016040523d82523d6000602084013e61081c565b606091505b509150915061082c8583836108a5565b95945050505050565b34156102925760405163b398979f60e01b815260040160405180910390fd5b6001600160a01b03811661087e57604051633173bdd160e11b815260006004820152602401610109565b807fb53127684a568b3173ae13b9f8a6016e243e63b6e8ee1178d6a717850b5d6103610791565b6060826108ba576108b582610904565b6108fd565b81511580156108d157506001600160a01b0384163b155b156108fa57604051639996b31560e01b81526001600160a01b0385166004820152602401610109565b50805b9392505050565b8051156109145780518082602001fd5b604051630a12f52160e11b815260040160405180910390fd5b80356001600160a01b038116811461094457600080fd5b919050565b600080600080600060a0868803121561096157600080fd5b61096a8661092d565b94506109786020870161092d565b93506109866040870161092d565b92506109946060870161092d565b91506109a26080870161092d565b90509295509295909350565b6000602082840312156109c057600080fd5b6108fd8261092d565b634e487b7160e01b600052604160045260246000fd5b600080604083850312156109f257600080fd5b6109fb8361092d565b9150602083013567ffffffffffffffff80821115610a1857600080fd5b818501915085601f830112610a2c57600080fd5b813581811115610a3e57610a3e6109c9565b604051601f8201601f19908116603f01168101908382118183101715610a6657610a666109c9565b81604052828152886020848701011115610a7f57600080fd5b8260208601602083013760006020848301015280955050505050509250929050565b6000825160005b81811015610ac25760208186018101518583015201610aa8565b50600092019182525091905056fea164736f6c6343000814000ab53127684a568b3173ae13b9f8a6016e243e63b6e8ee1178d6a717850b5d6103",
  "linkReferences": {},
  "deployedLinkReferences": {}
}