{
  "_format": "hh-sol-artifact-1",
  "contractName": "L1UsdcBridgeStorage",
  "sourceName": "contracts/L1/L1UsdcBridgeStorage.sol",
  "abi": [
    {
      "inputs": [
        {
          "internalType": "address",
          "name": "",
          "type": "address"
        },
        {
          "internalType": "address",
          "name": "",
          "type": "address"
        }
      ],
      "name": "deposits",
      "outputs": [
        {
          "internalType": "uint256",
          "name": "",
          "type": "uint256"
        }
      ],
      "stateMutability": "view",
      "type": "function"
    },
    {
      "inputs": [],
      "name": "l1Usdc",
      "outputs": [
        {
          "internalType": "address",
          "name": "",
          "type": "address"
        }
      ],
      "stateMutability": "view",
      "type": "function"
    },
    {
      "inputs": [],
      "name": "l2Usdc",
      "outputs": [
        {
          "internalType": "address",
          "name": "",
          "type": "address"
        }
      ],
      "stateMutability": "view",
      "type": "function"
    },
    {
      "inputs": [],
      "name": "messenger",
      "outputs": [
        {
          "internalType": "address",
          "name": "",
          "type": "address"
        }
      ],
      "stateMutability": "view",
      "type": "function"
    },
    {
      "inputs": [],
      "name": "otherBridge",
      "outputs": [
        {
          "internalType": "address",
          "name": "",
          "type": "address"
        }
      ],
      "stateMutability": "view",
      "type": "function"
    }
  ],
  "bytecode": "0x608060405234801561001057600080fd5b5061016a806100206000396000f3fe608060405234801561001057600080fd5b50600436106100675760003560e01c80638f601f66116100505780638f601f66146100af578063a1b4bc04146100e8578063c89701a2146100fb57600080fd5b80633cb747bf1461006c57806356c3b5871461009c575b600080fd5b60005461007f906001600160a01b031681565b6040516001600160a01b0390911681526020015b60405180910390f35b60025461007f906001600160a01b031681565b6100da6100bd36600461012a565b600460209081526000928352604080842090915290825290205481565b604051908152602001610093565b60035461007f906001600160a01b031681565b60015461007f906001600160a01b031681565b80356001600160a01b038116811461012557600080fd5b919050565b6000806040838503121561013d57600080fd5b6101468361010e565b91506101546020840161010e565b9050925092905056fea164736f6c6343000814000a",
  "linkReferences": {},
  "deployedLinkReferences": {}
}