{
  "_format": "hh-sol-artifact-1",
  "contractName": "L1UsdcBridge",
  "sourceName": "contracts/L1/L1UsdcBridge.sol",
  "abi": [
    {
      "inputs": [],
      "stateMutability": "nonpayable",
      "type": "constructor"
    },
    {
      "inputs": [
        {
          "internalType": "address",
          "name": "target",
          "type": "address"
        }
      ],
      "name": "AddressEmptyCode",
      "type": "error"
    },
    {
      "inputs": [
        {
          "internalType": "address",
          "name": "account",
          "type": "address"
        }
      ],
      "name": "AddressInsufficientBalance",
      "type": "error"
    },
    {
      "inputs": [],
      "name": "FailedInnerCall",
      "type": "error"
    },
    {
      "inputs": [
        {
          "internalType": "address",
          "name": "token",
          "type": "address"
        }
      ],
      "name": "SafeERC20FailedOperation",
      "type": "error"
    },
    {
      "anonymous": false,
      "inputs": [
        {
          "indexed": true,
          "internalType": "address",
          "name": "l1Token",
          "type": "address"
        },
        {
          "indexed": true,
          "internalType": "address",
          "name": "l2Token",
          "type": "address"
        },
        {
          "indexed": true,
          "internalType": "address",
          "name": "from",
          "type": "address"
        },
        {
          "indexed": false,
          "internalType": "address",
          "name": "to",
          "type": "address"
        },
        {
          "indexed": false,
          "internalType": "uint256",
          "name": "amount",
          "type": "uint256"
        },
        {
          "indexed": false,
          "internalType": "bytes",
          "name": "extraData",
          "type": "bytes"
        }
      ],
      "name": "ERC20DepositInitiated",
      "type": "event"
    },
    {
      "anonymous": false,
      "inputs": [
        {
          "indexed": true,
          "internalType": "address",
          "name": "l1Token",
          "type": "address"
        },
        {
          "indexed": true,
          "internalType": "address",
          "name": "l2Token",
          "type": "address"
        },
        {
          "indexed": true,
          "internalType": "address",
          "name": "from",
          "type": "address"
        },
        {
          "indexed": false,
          "internalType": "address",
          "name": "to",
          "type": "address"
        },
        {
          "indexed": false,
          "internalType": "uint256",
          "name": "amount",
          "type": "uint256"
        },
        {
          "indexed": false,
          "internalType": "bytes",
          "name": "extraData",
          "type": "bytes"
        }
      ],
      "name": "ERC20WithdrawalFinalized",
      "type": "event"
    },
    {
      "inputs": [
        {
          "internalType": "address",
          "name": "_l1Token",
          "type": "address"
        },
        {
          "internalType": "address",
          "name": "_l2Token",
          "type": "address"
        },
        {
          "internalType": "uint256",
          "name": "_amount",
          "type": "uint256"
        },
        {
          "internalType": "uint32",
          "name": "_minGasLimit",
          "type": "uint32"
        },
        {
          "internalType": "bytes",
          "name": "_extraData",
          "type": "bytes"
        }
      ],
      "name": "depositERC20",
      "outputs": [],
      "stateMutability": "nonpayable",
      "type": "function"
    },
    {
      "inputs": [
        {
          "internalType": "address",
          "name": "_l1Token",
          "type": "address"
        },
        {
          "internalType": "address",
          "name": "_l2Token",
          "type": "address"
        },
        {
          "internalType": "address",
          "name": "_to",
          "type": "address"
        },
        {
          "internalType": "uint256",
          "name": "_amount",
          "type": "uint256"
        },
        {
          "internalType": "uint32",
          "name": "_minGasLimit",
          "type": "uint32"
        },
        {
          "internalType": "bytes",
          "name": "_extraData",
          "type": "bytes"
        }
      ],
      "name": "depositERC20To",
      "outputs": [],
      "stateMutability": "nonpayable",
      "type": "function"
    },
    {
      "inputs": [
        {
          "internalType": "address",
          "name": "",
          "type": "address"
        },
        {
          "internalType": "address",
          "name": "",
          "type": "address"
        }
      ],
      "name": "deposits",
      "outputs": [
        {
          "internalType": "uint256",
          "name": "",
          "type": "uint256"
        }
      ],
      "stateMutability": "view",
      "type": "function"
    },
    {
      "inputs": [
        {
          "internalType": "address",
          "name": "_l1Token",
          "type": "address"
        },
        {
          "internalType": "address",
          "name": "_l2Token",
          "type": "address"
        },
        {
          "internalType": "address",
          "name": "_from",
          "type": "address"
        },
        {
          "internalType": "address",
          "name": "_to",
          "type": "address"
        },
        {
          "internalType": "uint256",
          "name": "_amount",
          "type": "uint256"
        },
        {
          "internalType": "bytes",
          "name": "_extraData",
          "type": "bytes"
        }
      ],
      "name": "finalizeERC20Withdrawal",
      "outputs": [],
      "stateMutability": "nonpayable",
      "type": "function"
    },
    {
      "inputs": [],
      "name": "l1Usdc",
      "outputs": [
        {
          "internalType": "address",
          "name": "",
          "type": "address"
        }
      ],
      "stateMutability": "view",
      "type": "function"
    },
    {
      "inputs": [],
      "name": "l2TokenBridge",
      "outputs": [
        {
          "internalType": "address",
          "name": "",
          "type": "address"
        }
      ],
      "stateMutability": "view",
      "type": "function"
    },
    {
      "inputs": [],
      "name": "l2Usdc",
      "outputs": [
        {
          "internalType": "address",
          "name": "",
          "type": "address"
        }
      ],
      "stateMutability": "view",
      "type": "function"
    },
    {
      "inputs": [],
      "name": "messenger",
      "outputs": [
        {
          "internalType": "address",
          "name": "",
          "type": "address"
        }
      ],
      "stateMutability": "view",
      "type": "function"
    },
    {
      "inputs": [],
      "name": "otherBridge",
      "outputs": [
        {
          "internalType": "address",
          "name": "",
          "type": "address"
        }
      ],
      "stateMutability": "view",
      "type": "function"
    }
  ],
  "bytecode": "0x608060405234801561001057600080fd5b50610d3e806100206000396000f3fe608060405234801561001057600080fd5b50600436106100a35760003560e01c80638f601f6611610076578063a1b4bc041161005b578063a1b4bc041461015d578063a9f9e67514610170578063c89701a21461018357600080fd5b80638f601f661461011357806391c49bf81461014c57600080fd5b80633cb747bf146100a857806356c3b587146100d857806358a997f6146100eb578063838b252014610100575b600080fd5b6000546100bb906001600160a01b031681565b6040516001600160a01b0390911681526020015b60405180910390f35b6002546100bb906001600160a01b031681565b6100fe6100f93660046109ae565b610196565b005b6100fe61010e366004610a31565b610228565b61013e610121366004610ac7565b600460209081526000928352604080842090915290825290205481565b6040519081526020016100cf565b6001546001600160a01b03166100bb565b6003546100bb906001600160a01b031681565b6100fe61017e366004610b00565b610241565b6001546100bb906001600160a01b031681565b333b156102105760405162461bcd60e51b815260206004820152603760248201527f5374616e646172644272696467653a2066756e6374696f6e2063616e206f6e6c60448201527f792062652063616c6c65642066726f6d20616e20454f4100000000000000000060648201526084015b60405180910390fd5b61022086863333888888886104ba565b505050505050565b61023887873388888888886104ba565b50505050505050565b6000546001600160a01b0316331480156102d6575060015460005460408051636e296e4560e01b815290516001600160a01b039384169390921691636e296e45916004808201926020929091908290030181865afa1580156102a7573d6000803e3d6000fd5b505050506040513d601f19601f820116820180604052508101906102cb9190610b79565b6001600160a01b0316145b6103525760405162461bcd60e51b815260206004820152604160248201527f5374616e646172644272696467653a2066756e6374696f6e2063616e206f6e6c60448201527f792062652063616c6c65642066726f6d20746865206f746865722062726964676064820152606560f81b608482015260a401610207565b60025487906001600160a01b0380831691161461039f5760405162461bcd60e51b815260206004820152600b60248201526a6e6f74204c31207573646360a81b6044820152606401610207565b60035487906001600160a01b038083169116146103ec5760405162461bcd60e51b815260206004820152600b60248201526a6e6f74204c32207573646360a81b6044820152606401610207565b6001600160a01b03808a166000908152600460209081526040808320938c168352929052205461041d908690610bac565b6001600160a01b03808b166000818152600460209081526040808320948e16835293905291909120919091556104549087876106f3565b866001600160a01b0316886001600160a01b03168a6001600160a01b03167f3ceee06c1e37648fcbb6ed52e17b3e1f275a1f8c7b22a84b2b84732431e046b3898989896040516104a79493929190610be8565b60405180910390a4505050505050505050565b60025488906001600160a01b038083169116146105075760405162461bcd60e51b815260206004820152600b60248201526a6e6f74204c31207573646360a81b6044820152606401610207565b60035488906001600160a01b038083169116146105545760405162461bcd60e51b815260206004820152600b60248201526a6e6f74204c32207573646360a81b6044820152606401610207565b6105696001600160a01b038b16893089610757565b6001600160a01b03808b166000908152600460209081526040808320938d168352929052205461059a908790610c1b565b6001600160a01b03808c1660009081526004602090815260408083208e851684529091528082209390935554600154925190821692633dbb202b921690633315319d60e11b906105fa908f908f908f908f908f908e908e90602401610c2e565b60408051601f198184030181529181526020820180516001600160e01b03167fffffffff000000000000000000000000000000000000000000000000000000009485161790525160e085901b909216825261065a92918a90600401610ca2565b600060405180830381600087803b15801561067457600080fd5b505af1158015610688573d6000803e3d6000fd5b50505050876001600160a01b0316896001600160a01b03168b6001600160a01b03167f718594027abd4eaed59f95162563e0cc6d0e8d5b86b1c7be8b1b0ac3343d03968a8a89896040516106df9493929190610be8565b60405180910390a450505050505050505050565b6040516001600160a01b0383811660248301526044820183905261075291859182169063a9059cbb906064015b604051602081830303815290604052915060e01b6020820180516001600160e01b038381831617835250505050610796565b505050565b6040516001600160a01b0384811660248301528381166044830152606482018390526107909186918216906323b872dd90608401610720565b50505050565b60006107ab6001600160a01b038416836107f9565b905080516000141580156107d05750808060200190518101906107ce9190610cf3565b155b1561075257604051635274afe760e01b81526001600160a01b0384166004820152602401610207565b606061080783836000610810565b90505b92915050565b6060814710156108355760405163cd78605960e01b8152306004820152602401610207565b600080856001600160a01b031684866040516108519190610d15565b60006040518083038185875af1925050503d806000811461088e576040519150601f19603f3d011682016040523d82523d6000602084013e610893565b606091505b50915091506108a38683836108af565b925050505b9392505050565b6060826108c4576108bf8261090b565b6108a8565b81511580156108db57506001600160a01b0384163b155b1561090457604051639996b31560e01b81526001600160a01b0385166004820152602401610207565b50806108a8565b80511561091b5780518082602001fd5b604051630a12f52160e11b815260040160405180910390fd5b50565b6001600160a01b038116811461093457600080fd5b803563ffffffff8116811461096057600080fd5b919050565b60008083601f84011261097757600080fd5b50813567ffffffffffffffff81111561098f57600080fd5b6020830191508360208285010111156109a757600080fd5b9250929050565b60008060008060008060a087890312156109c757600080fd5b86356109d281610937565b955060208701356109e281610937565b9450604087013593506109f76060880161094c565b9250608087013567ffffffffffffffff811115610a1357600080fd5b610a1f89828a01610965565b979a9699509497509295939492505050565b600080600080600080600060c0888a031215610a4c57600080fd5b8735610a5781610937565b96506020880135610a6781610937565b95506040880135610a7781610937565b945060608801359350610a8c6080890161094c565b925060a088013567ffffffffffffffff811115610aa857600080fd5b610ab48a828b01610965565b989b979a50959850939692959293505050565b60008060408385031215610ada57600080fd5b8235610ae581610937565b91506020830135610af581610937565b809150509250929050565b600080600080600080600060c0888a031215610b1b57600080fd5b8735610b2681610937565b96506020880135610b3681610937565b95506040880135610b4681610937565b94506060880135610b5681610937565b93506080880135925060a088013567ffffffffffffffff811115610aa857600080fd5b600060208284031215610b8b57600080fd5b81516108a881610937565b634e487b7160e01b600052601160045260246000fd5b8181038181111561080a5761080a610b96565b81835281816020850137506000828201602090810191909152601f909101601f19169091010190565b6001600160a01b0385168152836020820152606060408201526000610c11606083018486610bbf565b9695505050505050565b8082018082111561080a5761080a610b96565b60006001600160a01b03808a1683528089166020840152808816604084015280871660608401525084608083015260c060a0830152610c7160c083018486610bbf565b9998505050505050505050565b60005b83811015610c99578181015183820152602001610c81565b50506000910152565b6001600160a01b03841681526060602082015260008351806060840152610cd0816080850160208801610c7e565b63ffffffff93909316604083015250601f91909101601f19160160800192915050565b600060208284031215610d0557600080fd5b815180151581146108a857600080fd5b60008251610d27818460208701610c7e565b919091019291505056fea164736f6c6343000814000a",
  "linkReferences": {},
  "deployedLinkReferences": {}
}