{
  "_format": "hh-sol-artifact-1",
  "contractName": "L2UsdcBridgeStorage",
  "sourceName": "contracts/L2/L2UsdcBridgeStorage.sol",
  "abi": [
    {
      "inputs": [],
      "name": "l1Usdc",
      "outputs": [
        {
          "internalType": "address",
          "name": "",
          "type": "address"
        }
      ],
      "stateMutability": "view",
      "type": "function"
    },
    {
      "inputs": [],
      "name": "l2Usdc",
      "outputs": [
        {
          "internalType": "address",
          "name": "",
          "type": "address"
        }
      ],
      "stateMutability": "view",
      "type": "function"
    },
    {
      "inputs": [],
      "name": "l2UsdcMasterMinter",
      "outputs": [
        {
          "internalType": "address",
          "name": "",
          "type": "address"
        }
      ],
      "stateMutability": "view",
      "type": "function"
    },
    {
      "inputs": [],
      "name": "messenger",
      "outputs": [
        {
          "internalType": "address",
          "name": "",
          "type": "address"
        }
      ],
      "stateMutability": "view",
      "type": "function"
    },
    {
      "inputs": [],
      "name": "otherBridge",
      "outputs": [
        {
          "internalType": "address",
          "name": "",
          "type": "address"
        }
      ],
      "stateMutability": "view",
      "type": "function"
    }
  ],
  "bytecode": "0x608060405234801561001057600080fd5b5060e78061001f6000396000f3fe6080604052348015600f57600080fd5b5060043610605f5760003560e01c806356c3b58711604a57806356c3b5871460a4578063a1b4bc041460b6578063c89701a21460c857600080fd5b806305db940f1460645780633cb747bf146092575b600080fd5b6004546076906001600160a01b031681565b6040516001600160a01b03909116815260200160405180910390f35b6000546076906001600160a01b031681565b6002546076906001600160a01b031681565b6003546076906001600160a01b031681565b6001546076906001600160a01b03168156fea164736f6c6343000814000a",
  "linkReferences": {},
  "deployedLinkReferences": {}
}