{
  "_format": "hh-sol-artifact-1",
  "contractName": "L1UsdcBridgeProxy",
  "sourceName": "contracts/L1/L1UsdcBridgeProxy.sol",
  "abi": [
    {
      "inputs": [
        {
          "internalType": "address",
          "name": "_logic",
          "type": "address"
        },
        {
          "internalType": "address",
          "name": "initialOwner",
          "type": "address"
        },
        {
          "internalType": "bytes",
          "name": "_data",
          "type": "bytes"
        }
      ],
      "stateMutability": "payable",
      "type": "constructor"
    },
    {
      "inputs": [
        {
          "internalType": "address",
          "name": "target",
          "type": "address"
        }
      ],
      "name": "AddressEmptyCode",
      "type": "error"
    },
    {
      "inputs": [
        {
          "internalType": "address",
          "name": "admin",
          "type": "address"
        }
      ],
      "name": "ERC1967InvalidAdmin",
      "type": "error"
    },
    {
      "inputs": [
        {
          "internalType": "address",
          "name": "implementation",
          "type": "address"
        }
      ],
      "name": "ERC1967InvalidImplementation",
      "type": "error"
    },
    {
      "inputs": [],
      "name": "ERC1967NonPayable",
      "type": "error"
    },
    {
      "inputs": [],
      "name": "FailedInnerCall",
      "type": "error"
    },
    {
      "anonymous": false,
      "inputs": [
        {
          "indexed": false,
          "internalType": "address",
          "name": "previousAdmin",
          "type": "address"
        },
        {
          "indexed": false,
          "internalType": "address",
          "name": "newAdmin",
          "type": "address"
        }
      ],
      "name": "AdminChanged",
      "type": "event"
    },
    {
      "anonymous": false,
      "inputs": [
        {
          "indexed": true,
          "internalType": "address",
          "name": "implementation",
          "type": "address"
        }
      ],
      "name": "Upgraded",
      "type": "event"
    },
    {
      "stateMutability": "payable",
      "type": "fallback"
    },
    {
      "inputs": [
        {
          "internalType": "address",
          "name": "",
          "type": "address"
        },
        {
          "internalType": "address",
          "name": "",
          "type": "address"
        }
      ],
      "name": "deposits",
      "outputs": [
        {
          "internalType": "uint256",
          "name": "",
          "type": "uint256"
        }
      ],
      "stateMutability": "view",
      "type": "function"
    },
    {
      "inputs": [],
      "name": "implementation",
      "outputs": [
        {
          "internalType": "address",
          "name": "",
          "type": "address"
        }
      ],
      "stateMutability": "view",
      "type": "function"
    },
    {
      "inputs": [],
      "name": "l1Usdc",
      "outputs": [
        {
          "internalType": "address",
          "name": "",
          "type": "address"
        }
      ],
      "stateMutability": "view",
      "type": "function"
    },
    {
      "inputs": [],
      "name": "l2Usdc",
      "outputs": [
        {
          "internalType": "address",
          "name": "",
          "type": "address"
        }
      ],
      "stateMutability": "view",
      "type": "function"
    },
    {
      "inputs": [],
      "name": "messenger",
      "outputs": [
        {
          "internalType": "address",
          "name": "",
          "type": "address"
        }
      ],
      "stateMutability": "view",
      "type": "function"
    },
    {
      "inputs": [],
      "name": "otherBridge",
      "outputs": [
        {
          "internalType": "address",
          "name": "",
          "type": "address"
        }
      ],
      "stateMutability": "view",
      "type": "function"
    },
    {
      "inputs": [],
      "name": "owner",
      "outputs": [
        {
          "internalType": "address",
          "name": "",
          "type": "address"
        }
      ],
      "stateMutability": "view",
      "type": "function"
    },
    {
      "inputs": [
        {
          "internalType": "address",
          "name": "newAdmin",
          "type": "address"
        }
      ],
      "name": "proxyChangeOwner",
      "outputs": [],
      "stateMutability": "nonpayable",
      "type": "function"
    },
    {
      "inputs": [
        {
          "internalType": "address",
          "name": "_messenger",
          "type": "address"
        },
        {
          "internalType": "address",
          "name": "_otherBridge",
          "type": "address"
        },
        {
          "internalType": "address",
          "name": "_l1Usdc",
          "type": "address"
        },
        {
          "internalType": "address",
          "name": "_l2Usdc",
          "type": "address"
        }
      ],
      "name": "setAddress",
      "outputs": [],
      "stateMutability": "nonpayable",
      "type": "function"
    },
    {
      "inputs": [
        {
          "internalType": "address",
          "name": "newImplementation",
          "type": "address"
        }
      ],
      "name": "upgradeTo",
      "outputs": [],
      "stateMutability": "nonpayable",
      "type": "function"
    },
    {
      "inputs": [
        {
          "internalType": "address",
          "name": "newImplementation",
          "type": "address"
        },
        {
          "internalType": "bytes",
          "name": "data",
          "type": "bytes"
        }
      ],
      "name": "upgradeToAndCall",
      "outputs": [],
      "stateMutability": "nonpayable",
      "type": "function"
    },
    {
      "stateMutability": "payable",
      "type": "receive"
    }
  ],
  "bytecode": "0x608060405260405162000f6b38038062000f6b83398101604081905262000026916200036e565b82816200003482826200004b565b5062000042905082620000b1565b5050506200046c565b620000568262000123565b6040516001600160a01b038316907fbc7cd75a20ee27fd9adebab32041f755214dbc6bffa90cc0225b39da2e5c2d3b90600090a2805115620000a3576200009e8282620001a3565b505050565b620000ad62000220565b5050565b7f7e644d79422f17c01e4894b5f4f588d331ebfa28653d42ae832dc59e38c9798f620000f360008051602062000f4b833981519152546001600160a01b031690565b604080516001600160a01b03928316815291841660208301520160405180910390a1620001208162000242565b50565b806001600160a01b03163b6000036200015f57604051634c9c8ce360e01b81526001600160a01b03821660048201526024015b60405180910390fd5b807f360894a13ba1a3210667c828492db98dca3e2076cc3735a920a3ca505d382bbc5b80546001600160a01b0319166001600160a01b039290921691909117905550565b6060600080846001600160a01b031684604051620001c291906200044e565b600060405180830381855af49150503d8060008114620001ff576040519150601f19603f3d011682016040523d82523d6000602084013e62000204565b606091505b5090925090506200021785838362000285565b95945050505050565b3415620002405760405163b398979f60e01b815260040160405180910390fd5b565b6001600160a01b0381166200026e57604051633173bdd160e11b81526000600482015260240162000156565b8060008051602062000f4b83398151915262000182565b6060826200029e576200029882620002eb565b620002e4565b8151158015620002b657506001600160a01b0384163b155b15620002e157604051639996b31560e01b81526001600160a01b038516600482015260240162000156565b50805b9392505050565b805115620002fc5780518082602001fd5b604051630a12f52160e11b815260040160405180910390fd5b80516001600160a01b03811681146200032d57600080fd5b919050565b634e487b7160e01b600052604160045260246000fd5b60005b83811015620003655781810151838201526020016200034b565b50506000910152565b6000806000606084860312156200038457600080fd5b6200038f8462000315565b92506200039f6020850162000315565b60408501519092506001600160401b0380821115620003bd57600080fd5b818601915086601f830112620003d257600080fd5b815181811115620003e757620003e762000332565b604051601f8201601f19908116603f0116810190838211818310171562000412576200041262000332565b816040528281528960208487010111156200042c57600080fd5b6200043f83602083016020880162000348565b80955050505050509250925092565b600082516200046281846020870162000348565b9190910192915050565b610acf806200047c6000396000f3fe6080604052600436106100c05760003560e01c80638da5cb5b11610074578063a1b4bc041161004e578063a1b4bc0414610249578063c89701a214610269578063dfd3dcb31461028957610112565b80638da5cb5b146101ce5780638f601f66146101e35780639608088c1461022957610112565b80634f1ef286116100a55780634f1ef2861461017957806356c3b587146101995780635c60da1b146101b957610112565b80633659cfe61461011c5780633cb747bf1461013c57610112565b366101125760405162461bcd60e51b815260206004820152601460248201527f63616e6e6f74207265636569766520457468657200000000000000000000000060448201526064015b60405180910390fd5b61011a6102a9565b005b34801561012857600080fd5b5061011a610137366004610919565b6102bb565b34801561014857600080fd5b5060005461015c906001600160a01b031681565b6040516001600160a01b0390911681526020015b60405180910390f35b34801561018557600080fd5b5061011a61019436600461094a565b61032b565b3480156101a557600080fd5b5060025461015c906001600160a01b031681565b3480156101c557600080fd5b5061015c61038d565b3480156101da57600080fd5b5061015c61039c565b3480156101ef57600080fd5b5061021b6101fe366004610a0c565b600460209081526000928352604080842090915290825290205481565b604051908152602001610170565b34801561023557600080fd5b5061011a610244366004610a3f565b6103a6565b34801561025557600080fd5b5060035461015c906001600160a01b031681565b34801561027557600080fd5b5060015461015c906001600160a01b031681565b34801561029557600080fd5b5061011a6102a4366004610919565b610573565b6102b96102b46105d0565b6105da565b565b6102c361039c565b6001600160a01b0316336001600160a01b03161461030f5760405162461bcd60e51b81526020600482015260096024820152683737ba1037bbb732b960b91b6044820152606401610109565b61032881604051806020016040528060008152506105fe565b50565b61033361039c565b6001600160a01b0316336001600160a01b03161461037f5760405162461bcd60e51b81526020600482015260096024820152683737ba1037bbb732b960b91b6044820152606401610109565b61038982826105fe565b5050565b60006103976105d0565b905090565b6000610397610659565b6103ae61039c565b6001600160a01b0316336001600160a01b0316146103fa5760405162461bcd60e51b81526020600482015260096024820152683737ba1037bbb732b960b91b6044820152606401610109565b836001600160a01b0381166104405760405162461bcd60e51b815260206004820152600c60248201526b7a65726f206164647265737360a01b6044820152606401610109565b836001600160a01b0381166104865760405162461bcd60e51b815260206004820152600c60248201526b7a65726f206164647265737360a01b6044820152606401610109565b836001600160a01b0381166104cc5760405162461bcd60e51b815260206004820152600c60248201526b7a65726f206164647265737360a01b6044820152606401610109565b836001600160a01b0381166105125760405162461bcd60e51b815260206004820152600c60248201526b7a65726f206164647265737360a01b6044820152606401610109565b5050600080546001600160a01b0397881673ffffffffffffffffffffffffffffffffffffffff199182161790915560018054968816968216969096179095555050600280549285169284169290921790915560038054919093169116179055565b61057b61039c565b6001600160a01b0316336001600160a01b0316146105c75760405162461bcd60e51b81526020600482015260096024820152683737ba1037bbb732b960b91b6044820152606401610109565b6103288161068c565b60006103976106e0565b3660008037600080366000845af43d6000803e8080156105f9573d6000f35b3d6000fd5b61060782610708565b6040516001600160a01b038316907fbc7cd75a20ee27fd9adebab32041f755214dbc6bffa90cc0225b39da2e5c2d3b90600090a28051156106515761064c828261078f565b505050565b610389610805565b60007fb53127684a568b3173ae13b9f8a6016e243e63b6e8ee1178d6a717850b5d61035b546001600160a01b0316919050565b7f7e644d79422f17c01e4894b5f4f588d331ebfa28653d42ae832dc59e38c9798f6106b5610659565b604080516001600160a01b03928316815291841660208301520160405180910390a161032881610824565b60007f360894a13ba1a3210667c828492db98dca3e2076cc3735a920a3ca505d382bbc61067d565b806001600160a01b03163b60000361073e57604051634c9c8ce360e01b81526001600160a01b0382166004820152602401610109565b807f360894a13ba1a3210667c828492db98dca3e2076cc3735a920a3ca505d382bbc5b805473ffffffffffffffffffffffffffffffffffffffff19166001600160a01b039290921691909117905550565b6060600080846001600160a01b0316846040516107ac9190610a93565b600060405180830381855af49150503d80600081146107e7576040519150601f19603f3d011682016040523d82523d6000602084013e6107ec565b606091505b50915091506107fc858383610875565b95945050505050565b34156102b95760405163b398979f60e01b815260040160405180910390fd5b6001600160a01b03811661084e57604051633173bdd160e11b815260006004820152602401610109565b807fb53127684a568b3173ae13b9f8a6016e243e63b6e8ee1178d6a717850b5d6103610761565b60608261088a57610885826108d4565b6108cd565b81511580156108a157506001600160a01b0384163b155b156108ca57604051639996b31560e01b81526001600160a01b0385166004820152602401610109565b50805b9392505050565b8051156108e45780518082602001fd5b604051630a12f52160e11b815260040160405180910390fd5b80356001600160a01b038116811461091457600080fd5b919050565b60006020828403121561092b57600080fd5b6108cd826108fd565b634e487b7160e01b600052604160045260246000fd5b6000806040838503121561095d57600080fd5b610966836108fd565b9150602083013567ffffffffffffffff8082111561098357600080fd5b818501915085601f83011261099757600080fd5b8135818111156109a9576109a9610934565b604051601f8201601f19908116603f011681019083821181831017156109d1576109d1610934565b816040528281528860208487010111156109ea57600080fd5b8260208601602083013760006020848301015280955050505050509250929050565b60008060408385031215610a1f57600080fd5b610a28836108fd565b9150610a36602084016108fd565b90509250929050565b60008060008060808587031215610a5557600080fd5b610a5e856108fd565b9350610a6c602086016108fd565b9250610a7a604086016108fd565b9150610a88606086016108fd565b905092959194509250565b6000825160005b81811015610ab45760208186018101518583015201610a9a565b50600092019182525091905056fea164736f6c6343000814000ab53127684a568b3173ae13b9f8a6016e243e63b6e8ee1178d6a717850b5d6103",
  "linkReferences": {},
  "deployedLinkReferences": {}
}